:020000041000EA
:1000000000B5324B212058609868022188439860DF
:10001000D860186158612E4B002199600221596106
:100020000121F02299502B49196001219960352056
:1000300000F044F80222904214D00621196600F024
:1000400034F8196E01211966002018661A6600F04E
:100050002CF8196E196E196E052000F02FF8012189
:100060000842F9D1002199601B49196000215960AB
:100070001A491B48016001219960EB211966A021F2
:10008000196600F012F800219960164914480160C1
:100090000121996001BC002800D000471248134993
:1000A000086003C880F30888084703B5996A0420EC
:1000B0000142FBD001200142F8D103BD02B5186610
:1000C0001866FFF7F2FF186E186E02BD00000240BE
:1000D000000000180000070000035F00212200005C
:1000E000F4000018222000A00001001008ED00E03C
:1000F00000000000000000000000000074B24E7A12
:1001000000200420F7010010CB010010CD010010E9
:10011000C9010010C9010010C9010010C901001077
:10012000C9010010C9010010C9010010CF01001061
:10013000C9010010C9010010D1010010D301001045
:10014000C1010010C1010010C1010010C101001067
:10015000C1010010C1010010C1010010C101001057
:10016000C1010010C1010010C1010010C101001047
:10017000C1010010C1010010C1010010C101001037
:10018000C1010010C1010010C1010010C101001027
:10019000C1010010C1010010C1010010C101001017
:1001A000C1010010C1010010C1010010C101001007
:1001B000C1010010C1010010C1010010C1010010F7
:1001C000EFF30580103800BE00BE00BE00BE00BECA
:1001D00000BE00BEF2EB88713CE600105CE6001049
:1001E0003802001090A31AE71E481F49086006C88D
:1001F00081F3088810471D480068002801D019487D
:10020000F3E70DA40ECC002902D000F012F8F9E7B4
:100210001749184A002000E001C19142FCD116495B
:100220008847164988471649884700BEFDE701C937
:1002300001C29A42FBD370475CE60010C000002068
:10024000D01000206CF600100000042000000420F4
:100250006CF60010001004200010042000000000C4
:10026000704700000000000008ED00E0000000D032
:10027000D0100020982E002025A50010E9020010C3
:100280001DA50010F8B5C04606480749091A8B108D
:10029000C90FC91810B5491003D0044B002B00D06A
:1002A000984710BDD0100020D010002000000000A2
:1002B000054B10B5002B03D00449054800E000BFF2
:1002C000FFF7E2FF10BDC046000000003C23002005
:1002D000DCD9001010B502F089FC0122014B01208D
:1002E0001A7010BD862E0020F0B5DE4657464E46E9
:1002F0004546E0B5EBB00AF06BFA00F0D3FB00F036
:1003000097FE06F099F922AB029300230193B64BB6
:10031000B64A009301235B4206F008FC06F0C2FCDB
:100320000690079106F0BEFC002900D1B2E3FA2244
:100330000023920007F06AF91CAA94461323634431
:1003400098463AAB9946122363449A46A84BA94F64
:100350000993A94BA94D1993A94B38601293A94B46
:1003600029AC1A93A84B0D93A84B1793A84B18933D
:10037000A84B1E93A84B1D93A84B1693A84B1C93F8
:10038000A84B1393A84B1093A84B9B46A84B0C93D8
:100390005B4605950893BB46069E079F4246494625
:1003A000504600F089FB00285ED106F07BFC002956
:1003B00075D0FA220023920007F028F9059B1B78DC
:1003C000002B07D15B461B68C01AFA235B009842DA
:1003D00000D9A7E20F231CAA944623702633634456
:1003E00019000F2029AC01F08FF8002870D10E23DE
:1003F0001CAA944623702733634419000E2029ACAD
:1004000001F082F800285CD1089B1B78002B4BD1AF
:1004100006F048FC801BB9410029BFDB0D9B8548D5
:10042000198807F0B5F800230A900B930A9A0B9BE2
:10043000B6185F41002F02DA01267F4F76420C9BEF
:100440001B780133DBB2022B00D876E200230C9A32
:10045000137002F0C9FC01F0CDFC424649465046FB
:1004600000F02AFB0028A0D053461D7843461B7895
:10047000069306F017FC002900D14EE2FA22002371
:10048000920007F0C3F85B4618600023059A1370CA
:10049000172D00D954E2099BAD005B599F46FA2104
:1004A000890007F075F889E70023089A137001F0B6
:1004B0009FFA06F0F7FB801BB941002900DA6DE7CF
:1004C000ACE70130C2B22100842000F00DFC9BE7B4
:1004D0000130C2B22100842000F006FC87E7069BB1
:1004E000012B00D824E24B461B78072B00D931E2C0
:1004F0005C225A4312998A5C042A00D14AE20620FF
:100500001C9900F003FD50E7069B012B00D80FE279
:100510004B4659784B1E99414B46C9B2187801F0A9
:10052000EBF8162000F072FC3FE7069B142B00D876
:10053000FEE14B464D469A681B7B120A1B0613438D
:100540004A4606932D6951682D0AAC46127A090A6B
:1005500012060A4349464D466346086809792D7DCF
:10056000000A090601432D0648461D434B46007804
:100570000195DD682B0A9C464B461D7C63462D0683
:100580001D430095069B01F0C9F8152000F03EFCC4
:100590000BE7069B062B00D8CAE1072B00D1F0E140
:1005A0004B46DA790123134049464A4608680979DF
:1005B000000A090601434846526800781202120CEC
:1005C00001F05CF8142000F021FCEEE6069B002B05
:1005D00000D1ADE14B4619780F2900D9B5E1402093
:1005E00003F0A4FFE1E6C046D5020010F0D8FFFFFB
:1005F00030DF00102C230020E0D90010942E0020C2
:100600004C250020F4D90010E00F002008DA00107B
:1006100090DF001020DA001030DA00104CDA001001
:1006200064DA001084DA001090DA0010862E0020C0
:10063000922E002040420F00FFFFFF7F069B002B01
:1006400000D175E14B461B78072B00D982E10125CB
:10065000189AD35C1800119305F0E4F91198002260
:1006600085402B00D0252D0606930021AB6205F0B6
:100670000BF906F017FB14961597069F0E900F9135
:100680006B683B4200D19FE106F00CFB0E9A0F9B7A
:10069000801A9941002902D1C94B9842F0D9149E81
:1006A000159F002314934B465C221B785A43129BE0
:1006B0001B929B5C082B00D1D1E100D99AE1033B4E
:1006C000012B08D8119D0321280005F0F1F8042121
:1006D000280005F0BFF8149B002B00D053E1022046
:1006E0001E9900F013FC60E6069B042B00D81FE166
:1006F0004B4619780F2900D927E1DA781B79402079
:100700001B0213434A4612681202120C03F0E8FE61
:100710004BE6069B002B00D10AE14B46402019789E
:1007200003F078FE002800D126E1112000F06EFBD6
:100730003BE60699012900D8FAE04B465A78931C0B
:10074000DBB2994200D2F3E04B461CA98C461878E4
:100750007A236344190000F0B7FE26E601F0BAF8E8
:100760000E2000F053FB20E600F046FE002800D1EA
:100770001BE60C2000F04AFB17E6069B012B00D875
:10078000D6E04B461878597800F04AFF0B2000F06D
:100790003DFB0AE6069B022B00D8C9E04B461968D0
:1007A00018780902090C00F00FFF032000F02EFB5F
:1007B000FBE5069B022B00D8BAE04B461968187877
:1007C0000902091400F0C6FE022000F01FFBECE550
:1007D000069B012B00D8ABE04A46517810780A29D5
:1007E00000D0C6E00021052B03D991885388090465
:1007F000194300F0B5FD002800D0B0E0199903308E
:1008000000F084FBD1E5069B012B00D890E04B461D
:100810001878597801F00AF8072000F0F7FAC4E5D3
:1008200001F01EF8092000F0F1FABEE5069B012B4D
:100830007ED94B46FA211A884900531E9BB28B423F
:1008400000D290E005201A9900F060FBADE5069B10
:10085000042B6DD94A464B461279DB7812021A43B3
:100860004B46196818780902090C00F0C1FE0A20ED
:1008700000F0CCFA99E5069D0C2D59D94B469A68A3
:100880001B7B120A1B0613434A465168127A090A57
:1008900012060A43494608680979000A0906014315
:1008A0004846007800F0A2FF102D16D94A464B4664
:1008B000157CDB682D061B0A1D435C231278002182
:1008C0005343129A281C94466344069307F018FF7A
:1008D000002800D10025069B9D62052000F096FAB5
:1008E00063E5069B042B23D94A464B4611791B68C6
:1008F00009061B0A1078194300F0AAFE042000F034
:1009000085FA52E5069B002B12D04B46187800F072
:100910007BFF062000F07AFA47E5FA21890006F00D
:1009200037FEB0E500F09CFF0123059A137051E5F6
:100930000520109900F0EAFA37E50C9A13708AE561
:100940000120139900F0E2FA2FE50220169900F039
:10095000DDFA2AE50220179900F0D8FA25E50120F2
:1009600000F054FA21E50D9B08201A8000F04EFAA1
:100970001BE500F03BFC3EE703201D9900F0C6FAA2
:1009800013E5002310E60422852021A9219300F01D
:10099000ABF90AE5189AD55C4B462800597803F064
:1009A000DFFD2800032104F083FF0421280004F068
:1009B00051FF044806F080F9172000F027FAF4E40C
:1009C000F0490200E0930400069F1B940E9C0F9DCB
:1009D000D0231B065B683B4226D106F063F9001B5F
:1009E000A941002902D12E4B9842F1D91B9C149E9B
:1009F000159F56E6092B00D06DE6119D03212800B6
:100A000004F056FF0521280004F024FF1298D0229C
:100A100084461B9B069912066344516258331B7827
:100A2000002B2BD0516156E61B9C149E159F06F09F
:100A300039F914961597069F1F901B940E9C0F9DD5
:100A4000D0231B065B683B421BD006F02BF9001B32
:100A5000A9410029CAD1124B9842F1D9C6E7119D8C
:100A60000521280004F0F6FED023069A1B069A62A0
:100A700001210022280004F007FF2CE6069B936169
:100A800029E61B9C149E159F06F00CF91F9BC31AA8
:100A9000149308E6FA21890006F07AFD4CE4C0467A
:100AA000F04902000022024B1A70024B1A70704784
:100AB0008F2E00208A2E0020F0B55746DE464E4687
:100AC0004546E0B57E4BB9B001931B780700049111
:100AD0000592002B00D0CFE07A4B7B4E98467B4BA3
:100AE000C2469B468046002009F076FE019B1D7899
:100AF000831C00D1AEE03378C4B2042B1DD852461B
:100B00009B00D3589F4672490A78531CDBB20B7086
:100B100070498C54704A12789A420ED10423337073
:100B20000BE0C02C00D98DE000226B4B1C70684B91
:100B30001A7063425C4103343470002DD3D04746B1
:100B40009AE0AA2CF9D101233370F6E75B461B78B3
:100B500007AF3B709946604B5E491B7806A81A00A8
:100B600006307B700391029308F058F8029B002036
:100B700002339C4662460023A4460721140028E065
:100B80005B00DAB25BB2002B2EDB5200D3B252B262
:100B9000002A2FDB5B00DAB25BB2002B30DB5200A5
:100BA000D3B252B2002A31DB5B00DAB25BB2002B67
:100BB00032DB5200D3B252B2002A33DB5B00DAB22E
:100BC0005BB2002B34DB53000130DBB201378442CF
:100BD00035D93A7853405AB2002AD1DA52004A4005
:100BE00053B2D2B2002BD0DA5B004B405AB2DBB228
:100BF000002ACFDA52004A4053B2D2B2002BCEDAEA
:100C00005B004B405AB2DBB2002ACDDA52004A40B8
:100C100053B2D2B2002BCCDA5B004B405AB2DBB2FB
:100C2000002ACBDA52004A4053B2D2B2002BCADAC1
:100C30005B004B400130DBB201378442C9D86446C7
:100C40009C4212D00023337077E7204B1C700223A4
:100C5000337072E74746002D0ED1280039B0F0BC42
:100C6000BB46B246A946A046F0BD039B47469A46FE
:100C7000002D15D000233370184B194C9846194B92
:100C8000994643461B7822783B70059B49461A706B
:100C9000049807F0C3FF0023019A01251370DCE7D5
:100CA0004A460E4B0E4C1A7098460E4B029A51460D
:100CB00018009946227007F0B1FF3570E1E7C04691
:100CC0008A2E002098DF00108F2E0020902E00200A
:100CD0008D2E0020D42B00208E2E00208B2E002065
:100CE000892E00207C240020F0B5C64600B5B2B0A5
:100CF00001AF06008846151E38707A7000D080E07B
:100D00003A00002000270721AC1C28E05B00DFB27E
:100D10005BB2002B2EDB7F00FBB27FB2002F2FDBFC
:100D20005B00DFB25BB2002B30DB7F00FBB27FB237
:100D3000002F31DB5B00DFB25BB2002B32DB7F00C8
:100D4000FBB27FB2002F33DB5B00DFB25BB2002B64
:100D500034DB7F000130FFB20132844235D9137891
:100D60007B405FB2002FD1DA7F004F407BB2FFB2F1
:100D7000002BD0DA5B004B405FB2DBB2002FCFDA42
:100D80007F004F407BB2FFB2002BCEDA5B004B40BE
:100D90005FB2DBB2002FCDDA7F004F407BB2FFB2F3
:100DA000002BCCDA5B004B405FB2DBB2002FCBDA1A
:100DB0007F004F407BB2FFB2002BCADA5B004B4092
:100DC0000130DFB201328442C9D8AA2009F09EFC6A
:100DD000300009F09BFC280009F098FC44460026EE
:100DE000002D07D001362078F6B209F08FFC0134CF
:100DF000B542F7D1380009F089FC32B080BCB84662
:100E0000F0BD6B46981D07F009FF79E78E2343403C
:100E10005AB270B50500002A34DB5B00DAB25BB26F
:100E2000002B36DB5200D3B252B2002A38DB5B0013
:100E3000DAB25BB2002B3ADB5200D3B252B2002AD4
:100E40003CDB5B00DAB25BB2002B3EDB5200D3B27C
:100E500052B2002A40DB5B00DAB25BB2002B42DB0D
:100E60005200D4B2AA2009F051FC832009F04EFCB4
:100E7000012009F04BFC280009F048FC200009F093
:100E800045FC70BD072352005A4053B2D2B2002B2A
:100E9000C8DA07225B0053405AB2DBB2002AC6DA36
:100EA000072352005A4053B2D2B2002BC4DA0722B1
:100EB0005B0053405AB2DBB2002AC2DA0723520069
:100EC0005A4053B2D2B2002BC0DA07225B00534023
:100ED0005AB2DBB2002ABEDA072352005A4053B29C
:100EE000D2B2002BBCDA07225B005340DCB2B9E778
:100EF00010B504000CF0BEFCC02800D9C020C2B25E
:100F000021008620FFF7F0FE10BDC04670B5B0B0DE
:100F10006E46307008000D000CF0ACFC0400BE28DA
:100F200000D9BE246B4622002900581C07F076FE2B
:100F30000022331902345A7031008220E2B2FFF7E6
:100F4000D3FE30B070BDC0465C23434370B5334D13
:100F50000400EB5C0A2B23D8314A9B00D3589F46F0
:100F60005C264643AE1971780320B27801F006FC86
:100F7000737859081F2B48D807220A4093009B1802
:100F8000284A9B009A18116801220A4026498C467B
:100F900063441A605C236343EB18587804F042FD05
:100FA00070BD083CE0B201F015FFF9E70F38431EB1
:100FB00098411E4B80039C46604405F08FFF5C23E4
:100FC0006343ED18687804F02DFDA87804F02AFD3D
:100FD000E6E75C235C432C190120A278617801F0DC
:100FE000CDFBA07802F0C0F8DAE75C234343EB18AE
:100FF00002209A78597801F0C1FBD1E75C23434382
:10100000EB185B7859081F2BB6D903220A40083227
:10101000B4E7083CE0B201F065FDC1E74C250020D3
:10102000ACDF001000000540001005400040034008
:10103000F0B557464546DE464E46CF22E0B5604BFA
:101040000021180087B0D2001C00039307F0E0FDD8
:1010500000225C4B10251A70230008245A491232D2
:1010600090466442CAB26D42AD1AA21A9146FF225E
:10107000FE249446FB3A92465448554F8844A405B2
:1010800012E00A785A70FF229A7062461A73FC22A4
:1010900092059A614F4A01319F605C61DA61DC63BD
:1010A00002305C33414510D0CAB25619F6B2012E57
:1010B00007D94A44D2B2072AE3D802785A70427854
:1010C000E2E752465A700522DEE7434F43493800B3
:1010D0000CF0F2FA0321042004F0BCFB03210520EC
:1010E00004F0B8FB00220121042004F0CDFB002213
:1010F0000121052004F0C8FBB82307220399DB0077
:101100006420CA54032405F00DFC02F0C5F8002841
:1011100050D11420013C05F005FC002CF5D1002332
:1011200000242F4D039A535503F07EFC0F23002813
:101130002ED0039A01345355032C03D0039B5B5DDF
:10114000002BF1D00023274D08242B70264B0026BE
:10115000984602A98C460F220123210038000096F0
:1011600062440CF0DBFA002804DB2B785A1C2A704E
:101170004246D4540134E4B2782C02D02B78072BA9
:10118000E7D907B0F0BCBB46B246A946A046F0BDC1
:1011900004F02AF810230028CBD104F013F900281A
:1011A00006D1022CCED0142005F0BCFB0134C5E7DB
:1011B0001123BEE7B8230B220399DB00CA54AEE724
:1011C0004C250020802E002098E0001078E00010D0
:1011D000F401C409CDCCCC3DB8100020801A060023
:1011E0001C0600007B2E002080160020F8B50400AD
:1011F0000D00112826D80300103B012B39D94F4B85
:101200001E78002E1AD10A291CD0FFF79DFE5C2300
:1012100063434B4F0021FD54FB181A002C32117010
:1012200000221A625A62FF229E809A815E789A7822
:101230000E2D23D8434BAD005B599F4608204249F1
:10124000FFF764FE0020F8BD300004F0EBFB032143
:10125000300004F02DFB0123D022B340120653626C
:1012600093615C2300226343FB1858331A700120FA
:10127000E9E702203549FFF749FEE3E75C23002256
:101280006343FA54DEE75C236343314A083330009A
:10129000FA503049304A01F0D1FA0120D3E75C23FB
:1012A00063432E4AFB183000DA8019895A8901F00D
:1012B000C5FA0120C7E7FF2AC4D02500083DEDB2DA
:1012C0002800310001F086FB5C236343FB1859338F
:1012D00001201D70B7E7FF2AB4D02500083DEDB20C
:1012E0002800310001F056FD5C236343FB185A339C
:1012F00001201D70A7E7FF2AA4D03000110001F0E3
:10130000AFF801209FE7300001F096F901209AE73D
:10131000192EB3D9300003F04DFA012093E73000C5
:1013200004F080FB0123D022B34012063000936208
:101330000121002204F0A8FA012084E7802E002079
:101340004C250020D8DF0010C8DA0010A4DA001005
:101350004C046C074C0400006C070000DC05000026
:101360001F4B70B51B7804000D00002B31D103001A
:101370000E3B012B27D8002922D02000FFF7E4FDE7
:1013800020000F38431E9841164B26009C468003D0
:1013900029006044083E05F011FDF6B2124D7600BA
:1013A000705D0221AD1904F055FA0221687804F04D
:1013B00051FA5C220A21012062430C4BD15470BDCA
:1013C000E1256D02D9E702200949FFF79FFD0020C2
:1013D000F5E708200749FFF799FD0020EFE7C04631
:1013E000802E00200040034088E000104C250020A3
:1013F000E0DA0010C8DA0010F0B5DE4657464E4677
:101400004546E0B52D4B91B09B461B789A46002B84
:1014100009D001239A46504611B0F0BCBB46B246F3
:10142000A946A046F0BD02AF0822FF21380007F010
:10143000EFFB04AB18000822FF21984607F0E8FBF9
:101440000723002599461E4E19E0012C12D1B078D1
:10145000FF280FD001F082FD00280BD1B1784B4658
:10146000490819407B5CFF2B01D0A34218D14346A9
:101470007C545D540135EDB25C36122D0CD03478BD
:10148000022C06D0E1D9033C012CF3D8002471785A
:10149000E5E701247178E2E701235A461370B8E7C3
:1014A0004346084A5B5C06A801910095282109F093
:1014B00007F8072006A9FFF729FDACE7802E0020DA
:1014C0004C250020F4DA001030B55C2444430C4B6A
:1014D000E35C0A2B12D10F38431E9841094B80035D
:1014E0009C466044002A09D00025202483691C42C0
:1014F000FCD14B5D01350360AA42F7D830BDC04630
:101500004C2500200040034002005C2050430F4B5C
:1015100010B5C35C00200A2B14D10F3A531E9A4118
:101520000B4B00249C46920362441030936918428E
:1015300009D193691842FCD113680B550134402C32
:10154000F4D1402010BDE0B2FCE7C0464C2500209D
:10155000004003400A0070B5112811D85C2358439D
:10156000174900240B181D002C355C732C709A80D1
:10157000415C5C78022909D003290CD0012900D0F4
:1015800070BD2000997800F0CDFFF9E71100200030
:1015900001F0B0F8F4E71D895E89711BCB0F5B1871
:1015A000DB03180C5043074905F0CAFFAB195B1069
:1015B000C1182A003300200089B201F0A3F9DFE747
:1015C0004C2500201027000010B5112805D85C23F9
:1015D0004343064A985C042800D010BDD0184389C4
:1015E0000289C180407801F08DF9F6E74C25002092
:1015F00070B5112808D85C246043084B1C18218161
:101600006281C35C042B00D070BDE5881300607854
:101610000A00290001F076F9F6E7C0464C250020C3
:1016200010B5112811D811290FD85C2214004C4391
:10163000064BE45C052C08D142439B1800225A73E8
:101640000022083919731A625A6210BD4C25002015
:10165000112810D85C225043074B1818037B7F2BAE
:1016600009D801234373030000222C331A7000238E
:1016700001610362436270474C250020F0B5464685
:101680004F46D6460400C0B5884617001E001128F4
:101690001ED85C25174B454399460C204D442856CF
:1016A000002815DB2B002C331B78002B15D05C2376
:1016B00063434B44180043460363030001222C3369
:1016C0001A70002387864373002E01D10023036222
:1016D000E0BCBA46B146A846F0BDC0B201F052FA2D
:1016E000824607F017F85346AB63002368652B6406
:1016F000DDE7C0464C25002010B5112805D85C2335
:101700004343054A985C052800D010BDD2185932D1
:10171000107801F05FFAF8E74C250020F8B547464D
:10172000CE46040080B5161C0F1C1D1C112849D87C
:101730002D4B002198465C234343381C4344994673
:1017400006F0DEFF00284AD04B465F645C27674303
:101750000021301C474406F0D3FF002841D0BE646E
:101760005C2666430021281C464406F0C9FF002879
:101770002CD000210898F56406F0C2FF002807D09D
:10178000FE210898890506F0ABFF089B002801D1CF
:10179000FE239B055C226243424400210998D363E7
:1017A00006F0AEFF002806D0FE210998890506F054
:1017B00097FF002801D1002309935C236343099A12
:1017C00043441A65C0BCB946B046F8BD00250021A7
:1017D0000898F56406F094FF0028D1D1D8E70027D7
:1017E000B2E70026BBE7C0464C25002030B51128E3
:1017F00006D85C256843034C201841618261C361AF
:1018000030BDC0464C25002010B5112805D85C22FB
:101810004243054BD35C052B00D010BD0838C0B245
:1018200001F084F9F9E7C0464C250020112805D8BD
:101830005C234343094A985C092800D07047D218BA
:10184000130058331970012352789340D0221206A6
:10185000002901D05361F1E79361EFE74C250020A7
:10186000CF23F0B5194CDB00C6462500984600266C
:10187000002700B52035A0440BE0012B05D1002244
:10188000A178607800F04EFEA6805C345C3544455B
:1018900012D066732E732F602378022B0FD0032B88
:1018A000EBD1638922896078094901F02BF8A68081
:1018B0005C345C354445ECD180BCB846F0BD0021B9
:1018C000607800F017FFA680DFE7C0464C250020B7
:1018D000DC050000F0B5C64600B5FFF7C1FF0022E9
:1018E0003D4B3E4C1A703E4B2600F825002798468B
:1018F00020362B00083B012B1BD923780A2B06D856
:1019000042469B00D3589F46607804F08BF8002332
:1019100027706373A7803373002333607360FF23E2
:101920000135EDB223732B00083B5C345C36012B90
:10193000E3D85C345C36092D4BD00925D9E7280063
:1019400001F048FAE3E7280001F0CCF8DFE763781C
:1019500059081F2B23D807220A4093009B18214ABD
:101960009B009A18116801220A401F498C46634463
:101970001A60607804F056F8C9E70120A27861780F
:1019800000F0FCFEA07801F0EFFBC0E761780320D7
:10199000A27800F0F3FE637859081F2BDBD90322ED
:1019A0000A400832D9E70220A278617800F0E6FE0A
:1019B000ADE7E81F431E98410C4B80039C466044F2
:1019C00005F08CFA607804F02DF8A07804F02AF87D
:1019D0009DE780BCB846F0BD802E00204C2500203D
:1019E00014E00010000005400010054000400340D6
:1019F000F0B5DE4657464E464546CF23E0B5DC4FB0
:101A0000DB003C009B4683B02034BB440C2038569E
:101A1000002800DAA7E07B7B002B00D0AFE0237B1F
:101A2000002B00D19FE0C0B201F0ACF8E36A0600E1
:101A30002069984606F06EFE0021051C404606F01F
:101A40005FFE002839D04046CA4906F00CFE636BA1
:101A50008046191C281C009306F0EBFD236B0190B7
:101A60009A4643005B0800215046994606F048FE1E
:101A700000280DD04946504606F0F5FD8246011C6F
:101A8000404606F03DFE5346002800D143469846A6
:101A90004946404606F02CFE00280ED10021019850
:101AA00006F02EFE002803D180231B0643449846EF
:101AB0004146009806F0C0FD051C3000656306F045
:101AC00029FE011C281C06F0B4FD8046A069301ACE
:101AD00006F020FE80231B069C46A649604406F0C3
:101AE000AEFD8146FE20A661E6698005311C06F048
:101AF000A0FD216A06F0B7FD4946051C301C06F022
:101B0000B2FD011C281C06F097FD81462062A08AC8
:101B1000002800D12AE106F0F8FD974906F08FFD74
:101B2000061C656A0021281C06F0EAFD002800D189
:101B300096E0434659004908281C06F0D9FD0028C4
:101B400000D18DE00023002223623B78BA80022B73
:101B500000D180E0032B00D114E1012B03D1B9782F
:101B6000787800F0DFFC5C375C345F4500D04DE7EF
:101B700003B0F0BCBB46B246A946A046F0BDC0B219
:101B800001F014F80600386906F0C4FD7B4906F040
:101B900056FD051C300006F0BDFD784906F04FFDEE
:101BA000011C281C06F045FD6168061C06F041FD7D
:101BB000704906F044FD6F4982466660301C06F0AD
:101BC00052FD2168804606F037FDA368051C2060A1
:101BD0000021181C994606F093FD002813D04946B1
:101BE000281C06F08DFD00280AD180231B069C4688
:101BF000E1444946281C06F06DFD002800D1EFE0C5
:101C00004B464D4623607969301C06F02CFDB969BE
:101C1000061C281C06F027FD011C301C06F00CFDDC
:101C2000F969061C504606F01EFD011C301C06F02A
:101C300003FD5149061C06F063FD002800D1B6E003
:101C40004146281C06F0F5FC20604D4A3B78BA80DE
:101C5000022B00D07EE71100787800F04BFD82E780
:101C60004449404606F0FFFC2168009006F0E4FC81
:101C7000A368051C20600021181C9A4606F040FD50
:101C8000002813D05146281C06F03AFD00280AD13E
:101C900080231B069C46E2445146281C06F01AFD90
:101CA000002800D19AE053465546236040467969A2
:101CB00006F0D9FCB9698046281C06F0D4FC011C4A
:101CC000404606F0B9FCF9698046484606F0CBFC70
:101CD000011C404606F0B0FC8046011C301C06F09A
:101CE000F9FC002806D0281C009906F0A2FCB0469A
:101CF000051C206080231B069C4666444146301C20
:101D000006F0FEFC002805D00099281C06F091FC86
:101D1000B0462060A66A0021301C06F0F1FC0028C5
:101D20001CD043465D006D080021281C06F0E8FC2D
:101D3000002813D0291C301C06F0E2FC00280DD02E
:101D40000021404606F0DCFC00283DD00A49301C4A
:101D500006F089FC06F000FD02B2F6E606494046B0
:101D600006F081FC06F0F8FC02B2EEE6024ED8E680
:101D70004C2500200AD7233C0000C8420000204127
:101D8000102700003D897E89711BCB0F5B18DB0398
:101D9000180C5043134905F0D3FBAB195B10C11865
:101DA0002A003300787889B200F0ACFDDBE60E49FA
:101DB000301C06F08FFC0028C8D04146281C06F0D5
:101DC00038FC0A4A2060C0E680231B060849F01848
:101DD00006F049FC06F0C0FC02B2B6E6AA4662E78D
:101DE000A9460DE7102700000000C8C2F0D8FFFF89
:101DF0000000C842F0B5DE4657464E464546E0B5BF
:101E0000E54CE64BD1B0E35C002B0AD1E44D2B88C6
:101E1000002B00D10DE301339BB2F92B00D906E36F
:101E20002B8004F03FFF002900D18EE2FA2200232C
:101E3000920005F0EBFB0023F82505269B46D94BC5
:101E4000209020AF05932378002B1ED0B02E21D8F0
:101E50002A000832BA55B21CD2B29246721CD2B2D3
:101E6000BB54112B24D8059A9B00D3589F4651464A
:101E70000422A35EF21C7B54D2B204361B12F6B2CB
:101E8000BB545B460133DBB29B460135EDB25C349B
:101E90000A2DD8D15B463200390081203B71FEF714
:101EA00023FF51B0F0BCBB46B246A946A046F0BDE8
:101EB0005646E6E718AA94461623634498461DAB97
:101EC00099461E23634401931FAB00931A23414696
:101ED000634448461EAA03F0FFFAF31CDBB20C93DE
:101EE000331DDBB20893731DDBB20993B31DDBB264
:101EF0000D93F31DDBB20A9333000833DBB2079373
:101F000033000933DBB20E9333000A33DBB206939E
:101F100033000B33DBB2159333000D33DBB2169372
:101F200033000C33DBB20E361793F6B2002800D024
:101F300056E2002300209946002198469C461093C3
:101F400011931293139314930B930F935346109A78
:101F5000FA540C9B119AFA54089B129AFA54099B52
:101F6000139AFA540D9B149AFA544A460A9BF85451
:101F7000079BFA5442460E9BF954069BFA54159B54
:101F80000B9AFA546246179BFA54169B0F9AFA540E
:101F900077E71DAB18AA94469846122363449946E6
:101FA0001E23634402931FAB01931A23162263443A
:101FB000009341461EAB4846624403F099F9330052
:101FC0000E33DBB20A9333001033DBB20D933300D0
:101FD0000F33DBB20B93F31CDBB20C93331DDBB27C
:101FE0000E93731DDBB20993B31DDBB20F93F31D88
:101FF000DBB2109333000833DBB2069333000933AE
:10200000DBB2079333000A33DBB2119333000B3397
:10201000DBB2089333000C33DBB20D361293F6B209
:10202000002800D0AEE10023002099469846002108
:102030009C4613931493159316931793189319931F
:102040001A931B935346139AFA540C9B149AFA54FE
:102050000E9B159AFA54099B169AFA540F9B179ADD
:10206000FA54109B189AFA544A46069BFA54424670
:10207000079BF854119BFA546246089BF954129B33
:10208000FA54199B1A9ABB550A9BFA540B9B1B9A3C
:102090000D9EFA54F5E602F0C9FE1DAB18A98C4658
:1020A0009946162212204946604462441EAB0490B1
:1020B00003F074F818AA94461A23634498461E2322
:1020C00063441A0040461FA903F07EF818AB18229B
:1020D0009B5E9C4618AB1220185E4B460021595E51
:1020E00018AB16229A5E4346069200229A5E18ABFF
:1020F00007921C229B5E984618AB1E229B5E62468E
:1021000099465346FA54F31CDBB29A4693B21B0A23
:102110009C4653466246FA54331DDBB2F854731D95
:1021200080B2DBB2000AF854B01DC0B23954F01DC1
:1021300089B2C0B2090A3954310006980831C9B2CF
:102140007854310082B20931C9B2120A7A5432008D
:10215000079B0A32D2B2BB5432009BB20B32D2B2CE
:102160001B0ABB54330042460C33DBB2FA54320034
:1021700043460D329BB2D2B21B0ABB54330032002D
:1021800049460E33DBB2F9540F328BB2D2B210365D
:102190001B0AF6B2BB5474E64C2500201C06000056
:1021A000682E002040E0001018AA1E239446607894
:1021B00063441A381900C0B2984602F019FB53461E
:1021C000F21CF854D2B2000AB8544246331D1278B9
:1021D000DBB20536F6B2FA5453E618AA94461E232B
:1021E00063441800984602F093F8E8E758235246F3
:1021F000E35C0336F6B2BB5443E60122D023617898
:102200001B068A405B68033613405A1E93415246B0
:10221000F6B2BB5435E652468F4B30001B780A307D
:10222000BB54F21CD2B29146721DD2B29046B21D7E
:10223000D2B20892F21DD2B2069232000832D2B265
:102240009246C2B207923200311D0932C9B2D2B2EF
:1022500094460991002B7DD04946804A10787854E5
:10226000012B00D1F3E0517809983954022B74D036
:10227000404691783954032B72D0D178089839545C
:10228000042B70D0117906983954052B6ED0504626
:1022900051793954062B6CD0604691793954072B0B
:1022A0006AD0D37969E01FAB18AA984694461E23DA
:1022B0006344994619004246280000F03DFE4B4613
:1022C00052461B88F11CBB54C9B21B0A7B544346BF
:1022D000321D1B78D2B20536F6B2BB54D1E52800C8
:1022E00000F050FC8046280000F060FC5346424657
:1022F000FA54F31CDBB21212FA544246331DDBB21D
:102300001214FA544346721DD2B21B16BB54B31DAD
:10231000DBB2F854F31D0212DBB2FA543300320080
:10232000093308320114DBB2D2B20A360016B954AE
:10233000F6B2F854A5E55146E388F21C7B54D2B2BC
:1023400004361B0AF6B2BB549BE5FA21890005F05E
:102350001FF970E54A46BB547B5400234246BB54E8
:102360000023089ABB540023069ABB54002352460C
:10237000BB5400236246BB540023079A0B36F6B2C7
:10238000BB547EE54B461B7813934B461B881B0AB8
:10239000149343461B78159343461B881B0A1693D8
:1023A00018AB9B7D179318ABDB8A1B0A189318ABED
:1023B0001B7E994618AB188B9B7E000A984618AB7B
:1023C000598B1B7F090A9C4618AB9A8B130A1993E9
:1023D00018AB9B7F1A9318ABDB8B1B0A1B9331E660
:1023E0004B461B7810934B461B881B0A11934346A0
:1023F0001B78129343461B881B0A139318AB1B7E52
:10240000149318AB188B9B7E000A994618AB598B16
:102410001B7F090A984618AB9A8B130A0B9318ABCB
:102420009B7F9C4618ABDB8B1B0A0F938EE500232A
:10243000F6E402F0F7FC0378002B05D12B8801337A
:102440009BB2F92BF3D8EBE4FEF752FDF6E700233D
:10245000099ABB5481E7C0467B2E002080160020DD
:10246000F0B5C646012600B505000C0003F0DAFA07
:102470003200D023AA401B065A6220009A6100F065
:102480006DFD051E05D0200000F076FD80BCB8462D
:10249000F0BD0421200003F0DDF962081F2C26D9CD
:1024A0000323134019009A00D218194BA0279C4609
:1024B00008318B0058189200800060446244D55166
:1024C0008560C560134D0561A42010251550D651B7
:1024D0005B18114A9B009A181049E4071268E41728
:1024E00061400A400E498C4663441A60CEE70721DA
:1024F0000748114084468B005A18064892006244EF
:1025000015609560D5601061102050601660DFE79F
:1025100000000540691800000C000540FFFF0000A6
:102520000C10054070B501231500D0220C0083402B
:102530001206002D0DDB0800536100F00FFD00288E
:102540001BD035498D4242DD3449200000F0F8FDB2
:1025500070BD0800936100F001FD00280DD0304BE4
:102560009D42F1DBEB17ED185D402C48ADB22A49D6
:10257000684305F00DF881B2E7E7274B281C9D4220
:1025800042DC274B00B298423CDBC317C0185840CE
:1025900083B224482049584304F0D2FF63081F2C1B
:1025A00024D903221A40083293009B181E4A9B002C
:1025B00094466344E40723D51C4A0004196841404B
:1025C0000A40802149018C4663441A60C0E7EA173B
:1025D000AB1853409BB2002D1CD09801C0180001CD
:1025E000C018400004F0D4FF81B2AEE707221A40C1
:1025F00093009B180C4A9B0094466344E407DBD489
:102600000B4ADBE71800C0E7181C054B00B29842E4
:10261000BBDAF7E7074998E7102700002208000017
:10262000F0D8FFFF691800000C0005400000FFFF14
:10263000FFFF000023080000F8B50400042103F0A8
:1026400009F962081F2C2BD8072123481140844622
:1026500000208B005A189200624410609060D06095
:102660001E481061102050600F38106001201C4D72
:102670001C4AAC465B189B0020409C181A4A4142F9
:102680004A4021686344114019601849404208409B
:1026900017498C462168604441400A401A60F8BDE1
:1026A0000323134019009A00D2180B4B00269C46B6
:1026B000A02508318B0058189200800060446244C5
:1026C00056518660C660054E0661A420102616503D
:1026D000A3385051CAE7C046000005406918000001
:1026E0000C1005400C000540FFFF0000CCF3330C3C
:1026F000340C00001B4A10B50B1C0400914200DD95
:10270000131C194A1BB2934200DA130017481549EB
:10271000584304F015FF154BC21863081F2C14D83A
:10272000072119408B005B1811499B008C466344BC
:10273000E40715D50F491204186842400A40802169
:1027400049018C4663441A6010BD032119400831C9
:102750008B005B1806499B008C466344E407E9D470
:102760000549E9E710270000F0D8FFFF340C00000E
:102770000C0005400000FFFFFFFF000010B5140033
:10278000012825D04B081F2915D903221A400832E9
:1027900093009B18224A9B0094466344C90714D4B3
:1027A0002048214A196841400A40802149018C464D
:1027B00063441A6010BD07221A4093009B18184A00
:1027C0009B0094466344C907EAD51848184AE9E7CC
:1027D000D02388401B065861100000F0BFFB002882
:1027E00004D02000134900F0ABFCE3E763081F2C82
:1027F00011D807221A4093009B18094A9B009A1887
:1028000011680948E207D21742400A400A498C463B
:1028100063441A60CEE703221A400832EBE7C04651
:102820000C000540340C0000FFFF00000000340CD9
:102830000000FFFF230800000C100540F8B504005D
:10284000032103F035F80421200003F003F86208A7
:102850001F2C24D8072124481140844600208B00D7
:102860005A189200624410609060D0601F485B1854
:1028700010618020C0005060012010601C4A9B0045
:1028800094466344E4072CD41A481B4A1968414013
:102890000A40802149018C4663441A60F8BD032335
:1028A000134019009A00D2180F4B00269C46A02511
:1028B00008318B00581892008000624460445651E1
:1028C0008660C660094E5B1806618026A420F6006B
:1028D0001650A3385051064A9B0094466344E407BF
:1028E000D2D50648064AD1E7000005409698000078
:1028F0000C000540710B0000FFFF00000000710B91
:102900000000FFFF10B514000A1CA14200D2221CD7
:1029100091B2994200D91A1C92B253019B1A9B00A2
:102920009B189B0942081F2816D8072111408A00CE
:1029300052180C4992008C461B0462441B0CC007C1
:102940000ED509491B04106843400B408021490102
:102950008C466244136010BD032111400831E6E744
:102960000249F0E70C0005400000FFFFFFFF0000F8
:1029700070B5144B1A56002A23DBD300124D9B1A54
:10298000DB00EC18A17800291BD05D5D01231E003F
:10299000D021AE400906486849683040451EA8412C
:1029A00065784000AB400B40591E8B4103430748FC
:1029B0006568815C8354890005480B43C3565B19E5
:1029C000636070BD0C1F0020181D0020E01E002059
:1029D000A0E00010F8B557464E464546DE46E0B545
:1029E00005000F00160007285CD8384C2378002B10
:1029F0005ED0374B994600218846EB00354A5B1B79
:102A0000DB00D41861606163210040469F5430317F
:102A100008330870E070414698182822667006F066
:102A2000F7F842462C4B38005A559A4601234A463D
:102A30009B46A3706BB2D355935502F0F3FF5B46F0
:102A4000BB409846D02342461B0699465C469A6294
:102A500001210022380002F017FF300002F0E2FFEF
:102A6000B4404B4600229C620121300002F00CFF72
:102A70004B464A4641465B6852680B40591E8B41A3
:102A80001440621E94415B001C43534601220C21FA
:102A900038005C55114B02F049FF01220C21300037
:102AA00002F018FFF0BCBB46B246A946A046F8BDEE
:102AB0000B4803F0A3FB0121054B1E2218004942DD
:102AC000994606F0A5F80123237094E7812E002093
:102AD0000C1F0020181D0020E01E0020712900108E
:102AE000D81E002070B5072807D8C4000D4E241A40
:102AF000E4003519AB78002B00D170BD00220C2109
:102B0000A05D02F0E7FE00220C21687802F0E2FEF0
:102B1000FF22054B315D5A5469785A540023AB703B
:102B2000EBE7C046181D00200C1F0020F8B5072851
:102B300025D8C400124D241AE4002F1900220C21BC
:102B4000605D02F0C7FE00220C21787802F0C2FE20
:102B50002000002608302822002140197E6006F05F
:102B600057F83B0030337E631E7001220C21285D34
:102B700002F0B0FE01220C21787802F0ABFEF8BD25
:102B8000181D002007280DD8C200074B121AD200CA
:102B90009B189A78002A05D05868DB78002B02D061
:102BA000404200E000207047181D002007280DD883
:102BB000C200074B121AD2009B189A78002A05D03F
:102BC000586BDB78002B02D0404200E000207047B9
:102BD000181D0020072805D8C200034B121AD20086
:102BE0009B18D9707047C046181D0020F8B5684C76
:102BF000A378002B11D03026A55D0A21681C04F0B3
:102C00009FFC8B1C9B00E258642367680235BA1A4C
:102C10005343AD0063636751A1553A23E35C002B36
:102C200012D06826A55D0A21681C04F089FC0B00FF
:102C300010339B00E2586423E76B1035BA1A5343F4
:102C4000AD00E3666751A1557223E35C002B13D0FE
:102C5000A026A55D0A21681C04F072FC0B001E333F
:102C60009B00E2586423676F1E35BA1A5343A422AF
:102C7000AD00A3506751A155AA23E35C002B14D0EB
:102C8000D826AC23A55D0A21681CE75804F058FC3F
:102C90000B002C339B00E2586423BA1A5343DC2206
:102CA0002C35AD00A3506751A155E223E35C002B06
:102CB00016D08826E4237600A55D0A21681CE75813
:102CC00004F03EFC0B003A339B00E2586423BA1A2E
:102CD00053438A223A355200AD00A3506751A155A3
:102CE0008D235B00E35C002B17D0A4268E23760097
:102CF000A55D5B00681C0A21E75804F021FC0B006D
:102D000048339B00E2586423BA1A5343A62248353D
:102D10005200AD00A3506751A155A9235B00E35CAD
:102D2000002B17D0C026AA237600A55D5B00681C87
:102D30000A21E75804F004FC0B0056339B00E258CC
:102D40006423BA1A5343C22256355200AD00A35031
:102D50006751A155C5235B00E35C002B17D0DC262F
:102D6000C6237600A55D5B00681C0A21E75804F0C5
:102D7000E7FB0B0064339B00E2586423BA1A534309
:102D8000DE2264355200AD00A3506751A155F8BD55
:102D9000181D002070B50D001400072817D80C4B23
:102DA000C000C1541B1801265A70002208009A80E6
:102DB0009A719E7002F036FE3300AB40D025A640DB
:102DC0002D066B622000AB6102F02CFEAE6270BD7E
:102DD000102E0020072804D80022024BC0001B1828
:102DE0009A707047102E00200722F8B54C484D4DC0
:102DF000037801331340DC0029198978002934D184
:102E000001331340DC002919897800292DD10133C1
:102E10001340DC0029198978002926D10133134099
:102E2000DC002919897800291FD101331340DC0007
:102E300029198978002918D101331340DC00291998
:102E40008978002911D101331340DC0029198978D0
:102E500000290AD1591C13000B40DC001A002B1961
:102E60009B78002B02D10270F8BDDAB20127027004
:102E70003A002B5DD0269A4036060A200021726166
:102E800003F0DAFC3A002B5D64209A400021B26125
:102E900003F0D2FC3A00736823489C462B195B78F8
:102EA000816A9A40214F836A5B1ABB4206D87368D5
:102EB00013422CD1836A5B1ABB42F8D91A48836A41
:102EC0005B1A1A498B4226D8D026816A184F3606DB
:102ED00003E0836A5B1ABB4202D873681342F8D1DD
:102EE000114B2C199B6A5B1A952B0CD99800C018B2
:102EF000104B4000984206D83A2104F049FB0123C8
:102F0000A080A371B0E70023A380A371ACE7634660
:102F10001A42CFD1D2E700232C19A371A4E7C046EF
:102F20008C2E0020102E002000400540871300004A
:102F300070940000798A0300072809D8064BC00066
:102F40001B189878002803D098889B79088001E0A6
:102F500000230B8013707047102E00200300002008
:102F6000152B05D8034A01301A410123104058405F
:102F70007047C046FF10DFFFF0B54E46DE465746AD
:102F80004546E0B5060089B01D2805D8152803D8A8
:102F90005B4B0341DB0706D509B0F0BCBB46B2462C
:102FA000A946A046F0BD574B9A46430099461B18C8
:102FB0009B0053441B7A002B70D04B4652469B1902
:102FC0009B00D45853445B6898464F4B9C4276D044
:102FD0004E4D2B78002B79D04D4B1A680125404679
:102FE00029008140236803918B434A4947008C465E
:102FF000802123603B18DB00E31863440906196055
:10300000196080235B020493931DD1011B030B43C2
:10301000414920000B408021C9050B430593C02383
:103020001B030693B3021943079104AB41460AF010
:103030004DF9434610339D4063681D42FCD1434621
:103040009B009B46A3445A46344B4744FF00136100
:10305000E719334BD8373B60324B30003B60324B83
:10306000E118090D0631C9B202F0F4FB0123320068
:103070004146200000930AF0CFF863681D42FCD15E
:103080005A462A4B13612368039A13432360330083
:1030900001224B449B0053445A727DE700211A4899
:1030A0000AF022F8002825DB174A4B4651469B19A7
:1030B0009B00CA500122534458601A727DE71C4D90
:1030C0002B78002B0CD01B4B1A6887E71A491B483A
:1030D0000AF026F80E4B0200186001232B707DE7E2
:1030E000200015490AF01CF8124B02001860012359
:1030F0002B7073E70121114809F0F6FF0F4AD4E75E
:10310000FF10DFFF9C2C002000002050882E0020A4
:1031100078240020D0100000FFFFFF9F220800004D
:1031200080800000C06000000000E0AF23080000C5
:10313000872E002074240020B0E0001000003050E2
:1031400010B51D280CD843001B18064C9B00E21834
:10315000507A002804D01859536804339B00195042
:1031600010BDC0469C2C002070B504001D2807D857
:1031700043000D4A1B189B00D518297A002900D15D
:1031800070BD0126300069689A588840136805218F
:1031900083431360200002F05DFBD023A6401B0692
:1031A0009E6100236B72EBE79C2C0020F0B5CE46AD
:1031B00047460122002380B5354D85B003AC10434E
:1031C00023706070220029210093280002330AF046
:1031D0009BFA03F067FD002955D0FA2200239200E4
:1031E00004F014FAFA239B0099461323984681446D
:1031F000434600272370220001232921280000973D
:103200000AF082FA012805D0002005B0C0BCB946FA
:10321000B046F0BD0B266E44012332002921280060
:1032200000970AF07BFA0128EED103F03BFD00295C
:103230001FD0FA220023920004F0E8F981451ED342
:1032400033785B07D4D00C230026FF3323800A3B5E
:1032500022002921FF3B280000960AF055FA26801B
:10326000022322002921280000960AF04DFA0120AD
:10327000CBE7FA21890004F08BF98145E0D20548BB
:10328000FDF736FEC0E7FA21890004F081F9A9E7CD
:10329000B810002014DB0010F0B54E464546DE465F
:1032A0005746E0B50A2697B00024C0236A46254D4C
:1032B0006E4413763470292128000094BF3B06AA7F
:1032C0000AF022FA012813D03378402100931E4AD5
:1032D000002306A807F0F4F806A8FDF709FE00246D
:1032E000200017B0F0BCBB46B246A946A046F0BDD0
:1032F000320001232921280000940AF00FFA3178C6
:10330000431E07005A42534100910F4A402106A82C
:1033100007F0D6F806A8FDF7EBFD012FDFD13378D3
:10332000EE2BDCD16B46892629211E76280001234D
:10333000009406AA0AF0E8F9012809D00348FDF72D
:10334000D7FDCCE7B810002028DB001050DB0010C0
:103350000B276F4401233A002921280000940AF02A
:10336000DDF90128EAD101223B78292113436A467D
:10337000280053761676022306AA00940AF0C4F9B0
:1033800088236A46292113832800863B06AA0094D5
:103390000AF0BAF9C0236A465B0013837F3B2921F8
:1033A000FF3B06AA280000940AF0AEF96A46FE4BDD
:1033B00029211383FE3BFF3B06AA280000940AF054
:1033C000A3F96B4629211C8306AA02232800009436
:1033D0000AF09AF991236A4629211376280000946D
:1033E000903B06AA0AF090F9012801D100F063FD94
:1033F000802300246A465B0013832921FE3B06AA32
:10340000280000940AF080F9FF236A4629211383DB
:103410002800FD3B06AA00940AF076F980236A464C
:103420002921138328007E3B06AA00940AF06CF938
:1034300060236A4629211376280000945F3B06AA80
:103440000AF062F9012801D100F02CFD12223B782C
:10345000002413434E3292466A4651465376117603
:10346000022306AA3739280000940AF04DF94423B4
:1034700099466B464A4629211A832800022306AA48
:1034800000940AF041F9C94B292198466B464246FF
:1034900028001A83022306AA00940AF035F9FF23B4
:1034A0006A465B42138302332921FF3306AA2800B0
:1034B00000940AF029F96B46BB4E29211E8306AA07
:1034C0000223280000940AF01FF96B4629211C836F
:1034D00006AA0223280000940AF016F9FF276B467B
:1034E00029211F8306AA0223280000940AF00CF960
:1034F00009236A46292113832800073B06AA009462
:103500000AF002F910236A462921138328000E3B92
:1035100006AA00940AF0F8F811236A4629211383B9
:1035200028000F3B06AA00940AF0EEF892236A46A0
:103530005B001383233B2921FF3B06AA280000944C
:103540000AF0E2F8DB236A465B4213832921DD336C
:1035500006AA280000940AF0D7F875236A462921A4
:1035600013832800733B06AA00940AF0CDF86B463B
:1035700029211E8306AA0223280000940AF0C4F819
:103580006A468B4B292113832800022306AA009444
:103590000AF0BAF848236A46292113832800463BDB
:1035A00006AA00940AF0B0F86A46824B29211383D8
:1035B0002800022306AA00940AF0A6F86B462921E7
:1035C0001F8306AA0223280000940AF09DF8932383
:1035D0006A461B0113832921022306AA28000094AE
:1035E0000AF092F854236A46292113832800523B9B
:1035F00006AA00940AF088F86F4B29219B466B4677
:103600005A4628001A83022306AA00940AF07CF87E
:103610006A466A4B292113832800022306AA0094D4
:103620000AF072F86A46664B2921138328000223A8
:1036300006AA00940AF068F86A46624B29211383AF
:103640002800022306AA00940AF05EF86B46524650
:1036500029211A832800022306AA00940AF054F8AC
:1036600027236A46292113832800253B06AA0094B4
:103670000AF04AF8CA236A46DB0013832921022391
:1036800006AA280000940AF03FF851236A4629212F
:10369000138328004F3B06AA00940AF035F86A46C7
:1036A000494B292113832800022306AA00940AF01B
:1036B0002BF86A46454B292113832800022306AACA
:1036C00000940AF021F86A46414B2921138328000F
:1036D000022306AA00940AF017F861236A462921FA
:1036E000138328005F3B06AA00940AF00DF86223BA
:1036F0006A46292113832800603B06AA00940AF039
:1037000003F864236A46292113832800623B06AA32
:10371000009409F0F9FF65236A46292113832800E4
:10372000633B06AA009409F0EFFF6A46294B292162
:1037300013832800022306AA009409F0E5FF6B46D4
:1037400029211E8306AA02232800009409F0DCFF29
:103750006A46214B292113832800022306AA0094DC
:1037600009F0D2FF6A461D4B29211383280002234A
:1037700006AA009409F0C8FFB7236A465B42138388
:103780002921B93306AA2800009409F0BDFF4A2375
:103790006A46292113832800483B06AA009409F0B1
:1037A000B3FF6B4629211BE0FF010000452000000C
:1037B0004E2C0000302000003104000032030000D5
:1037C0004083FFFF462500005296FFFF5608000089
:1037D0005730000066A0FFFF2232000047140000AF
:1037E0001F8306AA02232800009409F08DFF6A4671
:1037F000FE4B292113832800022306AA009409F016
:1038000083FF7B236A46292113832800793B06AA7C
:10381000009409F079FF6A46F54B292113832800AB
:10382000022306AA009409F06FFF6B4629211E832C
:1038300006AA02232800009409F066FF6A46ED4BB1
:10384000292113832800022306AA009409F05CFFB3
:1038500042236A46292113832800403B06AA00948C
:1038600009F052FFBC236A465B4213832921BE3311
:1038700006AA2800009409F047FF6A46DE4B29217A
:1038800013832800022306AA009409F03DFF6A462C
:10389000DA4B292113832800022306AA009409F099
:1038A00033FF6A46D64B292113832800022306AA38
:1038B000009409F029FF6A46D24B2921138328007E
:1038C000022306AA009409F01FFFD1236A465B0178
:1038D00013832921022306AA2800009409F014FF6B
:1038E0006A46C94B292113832800022306AA0094A3
:1038F00009F00AFF6B4629211F8306AA022328002C
:10390000009409F001FFCD236A469B00138329210F
:10391000022306AA2800009409F0F6FE6A46BB4B73
:10392000292113832800022306AA009409F0ECFE43
:103930006B4629211E8306AA02232800009409F061
:10394000E3FE6B465A4629211A832800022306AA61
:10395000009409F0D9FE6A46AD4B29211383280053
:10396000022306AA009409F0CFFE6A46A94B29213A
:1039700013832800022306AA009409F0C5FE6A46B4
:10398000A54B292113832800022306AA009409F0DD
:10399000BBFE6B4629211F8306AA02232800009440
:1039A00009F0B2FE6B464A4629211A8328000223F9
:1039B00006AA009409F0A8FE42466B4629211A8304
:1039C0002800022306AA009409F09EFE6A46934B43
:1039D000292113832800022306AA009409F094FEEB
:1039E0006A468F4B292113832800022306AA0094DC
:1039F00009F08AFE67236A46292113832800653B64
:103A000006AA009409F080FE8E236A46DB00138329
:103A10002921022306AA2800009409F075FE7223CA
:103A20006A46FF331383703B2921FF3B06AA280017
:103A3000009409F069FE6A467A4B29211383913379
:103A4000FF3306AA2800009409F05EFE76236A463A
:103A5000292113832800743B06AA009409F054FE20
:103A600077236A46292113832800753B06AA009410
:103A700009F04AFE6B4629211E8306AA022328006C
:103A8000009409F041FE0E236A46FF3313830C3B7A
:103A90002921FF3B06AA2800009409F035FEFF23E8
:103AA0006A46292113832800022306AA009409F0FC
:103AB0002BFEC0235B0098466B46424629211A83A1
:103AC0002800022306AA009409F01EFE6A46564BFF
:103AD000292113832800022306AA009409F014FE6A
:103AE0006B4629211E8306AA02232800009409F0B0
:103AF0000BFEC7236A465B0013838D3B2921FF3BE6
:103B000006AA2800009409F0FFFD80236A465B00A6
:103B100013832921FE3B06AA2800009409F0F4FD36
:103B20006B4629211F8306AA02232800009409F06E
:103B3000EBFD80236A462921138328007E3B06AAD9
:103B4000009409F0E1FD6A46384B292113832800CF
:103B5000022306AA009409F0D7FD0C236A46FF331E
:103B600013830A3B2921FF3B06AA2800009409F091
:103B7000CBFD6A462E4B292113832800022306AA77
:103B8000009409F0C1FD6B46424629211A832800A2
:103B9000022306AA009409F0B7FD6B4629211E8373
:103BA00006AA02232800009409F0AEFD6B462921E5
:103BB0001C8306AA02232800009409F0A5FD6A468A
:103BC0001C4B292113832800022306AA009409F024
:103BD0009BFD83236A462921137628000094823BAB
:103BE00006AA09F091FD04AE26E0C0467A0A00005C
:103BF000782100002334000045260000460500001F
:103C0000404000000E060000434000003544000024
:103C10004B0900004C0500004D040000470800005F
:103C20004828000072FEFFFF01F8FFFF0A040000B1
:103C300001E8FFFFFF060000012800D12AE104226D
:103C400033780024134383276A4629215376177655
:103C5000022306AA2800009409F056FD6A469A4BF2
:103C6000292113832800022306AA009409F04CFDA1
:103C700082236A46FF331383803B2921FF3B06AA38
:103C80002800009409F040FDC0236A465B001383BE
:103C90007F3B2921FF3B06AA2800009409F034FD50
:103CA0006A468A4B292113832800022306AA00941E
:103CB00009F02AFD6B4629211F8306AA022328004A
:103CC000009409F021FD02F0EDFF002900D1D8E0B9
:103CD000FA220023920003F099FCFA239B009846F5
:103CE000832780446B4600241F7629210123280066
:103CF000009406AA09F008FD012804D07448FDF7D5
:103D0000F7F8FFF7ECFA012332002921280000948C
:103D100009F004FD0128F1D102F0C4FF002900D10F
:103D2000AAE0FA220023920003F070FC804500D242
:103D3000ACE03378002BD5D084236A46FF3313835D
:103D4000002329219846009306AA0233280009F08F
:103D5000DBFC92236A461376434629210093280010
:103D6000013306AA09F0D0FC0128C7D1434632002E
:103D7000009329212800013309F0D0FC0128BDD18E
:103D800081236A461383434634782921009306AA87
:103D90000233280009F0B8FC6A464E4B29211383F0
:103DA000434606AA00932800023309F0ADFC8323A2
:103DB0006A467F271376434627400093292128002F
:103DC000013306AABB46E40909F09EFC012800D194
:103DD0007EE2042269463378280093434B76002321
:103DE0007F3298460A762921009306AA023309F009
:103DF0008BFC394B29219A466B4652461A8343461F
:103E000006AA00932800023309F07EFC80236A464C
:103E10005B00138343462921009306AA023328003E
:103E200009F072FCFF2399466B464A461A834346C3
:103E30002921009306AA0233280009F065FC80239B
:103E40006A46138343462921009306AA02332800B9
:103E500009F05AFCB0236A461376434629210093A1
:103E60002800013306AA09F04FFC01283CD01B486A
:103E7000FDF73EF8FFF733FAFA21890003F088FBDB
:103E800054E7FA21890003F083FB26E71448FDF785
:103E90002FF833E70123320029212800009409F08C
:103EA0003DFCCCE601233A0029212800009409F0CA
:103EB00035FCFFF7CBFA012329212800094A009499
:103EC00009F02CFCFFF794FAFF070000946B000048
:103ED00074DB0010FF060000FF01000088DB00100B
:103EE00060DB0010912E0020434632000093292110
:103EF0000623280009F012FC0628B8D16B4652466A
:103F00001A8343462921009306AA0223280009F0B8
:103F1000FBFB4F236A46138343462921009306AADD
:103F20000223280009F0F0FB6A46EE4B2921138397
:103F3000434606AA00932800022309F0E5FB6B46DE
:103F40004A461A8343462921009306AA02232800E1
:103F500009F0DAFB6A46E44B292113834346280023
:103F6000009306AA022309F0CFFB002C0FD00723F1
:103F700000249C4601206346010023409940E2084A
:103F8000B35C01348B43E4B2B3540C2CF3D107235C
:103F900000219C4601206746E208B35C2740994611
:103FA0008B4500D1AAE03B4101340340C918E4B27B
:103FB000C9B2302CEFD1B0236A4619203100002657
:103FC00013766844062204F029FE0723292106AA55
:103FD0002800009609F098FB02236A46FF331383FA
:103FE000292128000096FF3B06AA09F08DFB4020FE
:103FF000FFF7DCF8002800D18BE06A46BB4B292193
:1040000013832800022306AA009609F07DFB0020F6
:10401000FFF7CCF8041E00D180E06A46B44B29219A
:1040200013832800022306AA009609F06DFB502393
:104030006A4629211376280000964F3B06AA09F00C
:1040400063FB01286FD0C0236A4600265B00138300
:104050007F3B06AA292128000096FF3B09F054FB6C
:104060006A46A44B29211383FE3B06AA280000962A
:10407000FF3B09F049FB6B4606AA1E832921022358
:104080002800009609F040FB694691229A4B0A7677
:104090001B7806AA4B76280002232921009609F0F6
:1040A00033FB80236A465B001383292106AA28007C
:1040B0000096FE3B09F028FB6A46FF232921138363
:1040C000280006AA0096FD3B09F01EFB6A468023E5
:1040D00029211383280006AA00967E3B09F014FBD1
:1040E00080236A469B001383FF3B2921280000960A
:1040F000FF3B06AA09F008FBFFF7F2F80300BB40FC
:104100004F4601349F43E4B2B754302C00D042E70D
:1041100051E77A48FCF7ECFEFFF7E1F87848FCF746
:10412000E7FEFFF7DCF8012329212800009603AA07
:1041300009F0F4FA012886D151236A462921137621
:1041400028000096503B06AA09F0DEFA012800D0AC
:1041500079E70D236B449946292101234A4628001B
:10416000009609F0DBFA012800D06CE752236A467A
:104170002921137628000096513B06AA09F0C4FABB
:10418000012800D05FE70E276F4401233A00292160
:104190002800009609F0C2FA012800D053E76B46C8
:1041A0001B7B6A4698464B461B783F789A4670239D
:1041B00029211376280000966F3B06AA09F0A4FA7D
:1041C000012800D03FE70F236B44994629210123A2
:1041D0004A462800009609F0A1FA012800D032E7EB
:1041E000534601339F404346FA2101335B00DBB263
:1041F0005A01D21A5201D3181E01F61A3602F536A8
:10420000FF368900300003F0C3F9FA210137784303
:10421000C9008046300003F0BBF9FA214044890010
:1042200003F0B6F9FF231B019C46364B60449842CD
:1042300000D908E74B461B78FA2101335B00DBB25B
:104240005A01D21A5201D3181A01D31AFA22520073
:1042500090461B0298442C4BC9001B1A5E01F61AAB
:104260004046B600F61803F093F9FA21F600361826
:104270008900404603F08CF90100300003F088F912
:10428000C219002A42D0013A0023FF2A04D901337F
:1042900052089BB2FF2AFAD81E021643B6B26A46EB
:1042A000712300271376330A5376292106AA0223A5
:1042B0002800009709F028FA6A467223567613768A
:1042C000292102232800009706AA09F01DFABAE660
:1042D00043463200009329212800013309F01EFAD9
:1042E00077E5C0464E2C0000B6B4FFFF0102000087
:1042F00001E8FFFFFF010000912E0020A0DB00106D
:10430000B4DB0010E7800000E88000000026C6E76C
:10431000F0B587B013236A460026394D13750400A3
:10432000292128000096123B05AA09F0EDF9012881
:1043300008D0344E002C02D0334B1B7823703088C9
:1043400007B0F0BD0E276F4401233A002921280051
:10435000009609F0E3F90128EBD13B785B07E8D040
:1043600014236A462921137528000096133B05AAD9
:1043700009F0CAF9012839D01E236A4600271375AF
:104380002921280000971D3B05AA09F0BDF9012845
:104390000DD01C4E0C236A46FF3393820023292143
:1043A00000932800023305AA09F0AEF9C2E704AE73
:1043B0000223320029212800009709F0AFF90228D2
:1043C000E7D10F2233886A4411780E4E5BBA98B257
:1043D000490633800D4B090FCB400D49DB07814265
:1043E0007F41094ADB0F1F401770D3E70F220123DB
:1043F0002921280000966A4409F090F9BCE7C046DC
:10440000B8100020722E00207F2E0020010800002E
:10441000FD1F0000F0B587B06B4600250E229D738E
:10442000DD7301232C4E04000F00009301006A4449
:10443000300009F069F9012802D0002007B0F0BD72
:104440000F2201232100300000956A4409F066F92B
:104450000128F2D180236A465B01138221000223E6
:104460003000009504AA09F04FF90228E5D1033085
:1044700002F058FA6A46FE2357741374210002238F
:104480003000009504AA09F03FF90228D5D101387F
:1044900002F048FA80236A469B011382210002231E
:1044A0003000009504AA09F02FF90228C5D1033085
:1044B00002F038FA094B21001A68300004926A466B
:1044C0001B7913750523009504AA09F01DF9053819
:1044D00043425841C0B2B1E7B8100020C8E0001014
:1044E00030B5140005008A000E48E1B20632090218
:1044F0000240240A24040A432243190685B00A43D1
:1045000002921B0A02AA1371002329000093064895
:10451000053309F0F9F8053843425841C0B205B0F7
:1045200030BDC046FF00FFFFB810002010B5890065
:1045300084B002AA0631002311701021074C537079
:1045400053801171010000932000053309F0DCF85D
:10455000053843425841C0B204B010BDB810002025
:10456000F8B5DE4657464E4645460124E0B50500FF
:10457000D026AC4036068B46052101F06BF97462FB
:104580008548746102F098FB844BFF279946082305
:104590004B449A46012398460D20B46102F08CFBEF
:1045A00000253B0042462B411A4212D00D20746177
:1045B000013502F081FB082DF3D10D20746102F06A
:1045C0007BFB01239C46E144D1450AD04B461F7832
:1045D000E2E70D20B461013502F06EFB082DE0D159
:1045E000EBE76D4802F068FB5B46012B00D1A3E0CE
:1045F0006B4BD026994632234B449A460123FF2722
:10460000984636060D20B46102F056FB00253B00AB
:1046100042462B411A4212D00D207461013502F03E
:104620004BFB082DF3D10D20746102F045FBD14501
:1046300012D04B461F7801239C46E144E2E70D204F
:10464000B461013502F038FB082DE0D10D20746112
:1046500002F032FBD145ECD1524802F02DFB524B17
:10466000D026994608234B449A460123FF279846B3
:1046700036060D20B46102F01FFB00253B004246C8
:104680002B411A4212D00D207461013502F014FB47
:10469000082DF3D10D20746102F00EFB01239C461E
:1046A000E144D1450AD04B461F78E2E70D20B461C2
:1046B000013502F001FB082DE0D1EBE7364802F0AE
:1046C000FBFA3A4BD026994605234B449A460123E0
:1046D000FF27984636060D20B46102F0EDFA00255A
:1046E0003B0042462B411A4212D00D207461013525
:1046F00002F0E2FA082DF3D10D20746102F0DCFA29
:10470000CA4512D04B461F7801239C46E144E2E79C
:104710000D20B461013502F0CFFA082DE0D10D2053
:10472000746102F0C9FACA45ECD17461F0BCBB46B1
:10473000B246A946A046F8BD1D4BD0269946322365
:104740004B449A460123FF27984636060D20B46154
:1047500002F0B2FA00253B0042462B411A4213D028
:104760000D207461013502F0A7FA082DF3D10D2058
:10477000746102F0A1FAD14500D16DE74B461F7874
:1047800001239C46E144E1E70D20B461013502F0CC
:1047900093FA082DDFD1EAE71027000048E1001066
:1047A000E1E0001080380100D8E00010D1E00010F6
:1047B00015E1001010B5040008F0DEFF20001F21F5
:1047C00001F048F820000022002101F05DF82000EF
:1047D00000211A3C01F012F9E3B2022B04D80122A5
:1047E000024BA4005242E25010BDC046E40F00202C
:1047F0002B4AF0B5C6468846116803034B40E021BA
:10480000C9010B40274900B50B6080211025002607
:104810000424070024484900046013680B42FCD0BC
:104820005368013D1B041B0CF618002DF4D11F4DDD
:10483000BF00EA593009002A07DB43001818D300EB
:104840009B1A0A21C01802F07BFEE851092806DCF9
:10485000002300204246137080BCB846F0BD03F030
:1048600059FF134903F0FFFE124904F0C3F812493F
:1048700003F0F9FE1149051C03F02CFF0028E7D1D5
:104880000F49281C03F03CFF0028E1D10B49281CEC
:1048900003F0E9FE03F092FF012380B2DAE7C0469D
:1048A00000C0044000D0044000E00440E40F0020B9
:1048B0006740533A333393BF48E1DE410000204163
:1048C0000000A042F0B5DE4657464E464546E0B5EC
:1048D0004C4D83462B788A46914689B0002B52D1A5
:1048E000494C4A4B07AE98461F7802F0DBF900238B
:1048F000474A80185941002902DA012045494042BF
:104900000023029003910093320039002000043309
:1049100008F00EFF042833D1FE227378D2011B0267
:10492000134032781343042B08DC0024200009B024
:10493000F0BCBB46B246A946A046F0BD9FB23B1CA8
:104940004F4500D94B469BB2059343461B7898468A
:1049500002F0A8F900232E4A80185941002902DAF2
:1049600001202C49404200230290039100935246BB
:10497000059B4146200008F0DBFE059B98422AD0AB
:1049800001232B70D1E70023234A2B7008331360D7
:10499000224A23491360082210000B689843FBD178
:1049A000194C2049200008F087FE0321042000F064
:1049B00051FF0321052000F04DFF002201210420BA
:1049C00000F062FF00220121052000F05DFF1E20A3
:1049D00001F0A8FF85E75346191D4F450AD9059CEC
:1049E0005046043CA4B2220008F0E2FE5A46B378D6
:1049F00013709BE7043FBCB22200504608F0D8FE7B
:104A0000F4E7C046782E0020B8100020F20F0020F6
:104A1000400D0300FFFFFF7F00E0004000F000407A
:104A200008C00040801A0600F0B5DE4657464E46E4
:104A30004546E0B5ABB002F035F9002900D1B5E04C
:104A4000FA220023920002F0E1FDDD4B984200D8EB
:104A5000B4E00026DB4DDC4C05232A004A2120006F
:104A6000009608F051FE052800D1C5E005232A0074
:104A70004B212000009608F047FE052800D08EE06C
:104A80004B234B27994602F00DF9002900D1ADE0E8
:104A9000FA220023920002F0B9FD03004021CB4A24
:104AA000009716A805F00CFD16A8FCF721FA02F0F5
:104AB000F9F8002900D18CE0FA220023920002F0DC
:104AC000A5FDC34B984200D88BE002F0EBF800291B
:104AD00000D178E0FA220023920002F097FD804690
:104AE0008C220023BB4EBC4D5200002130002B70A5
:104AF00004F08EF802F0D6F80023B84A8018594125
:104B0000002902DA0120B6494042002300931933FC
:104B100002900391FF3332004946200008F008FE5E
:104B20008C235B0098426BD02B78002B00D044E1A3
:104B3000AC4D43468021AC4A2800009705F0C0FCEC
:104B40002800FCF7D5F90823A84AA9491360A94A07
:104B50001360082210000B689843FBD1A64920007F
:104B600008F0AAFD0321042000F074FE03210520B3
:104B700000F070FE00220121042000F085FE0520D7
:104B80000022012100F080FE1E2001F0CBFE00205B
:104B90002BB0F0BCBB46B246A946A046F0BD914A38
:104BA000964B31CB31C21B681360F0E7FA218900C4
:104BB00002F0EEFC824B984200D94AE7904B181A5B
:104BC00001F0B0FE45E7FA21890002F0E1FC8046E1
:104BD00086E7FA21890002F0DBFC7D4B984200D980
:104BE00073E7884B181A01F09DFE6EE7FA218900E1
:104BF00002F0CEFC030051E74A234A27994642E7D8
:104C00004B462B70FE21774BC901994633797E4A7A
:104C10000393B3784846029373781B020B403178B4
:104C200000970B4301938021434605F049FC484619
:104C3000FCF75EF9322001F075FEFF23734F06AEDC
:104C40003900337020223000FFF73CFEFF2133781B
:104C5000002800D039786E4A01910090502116A8A2
:104C600005F02EFC16A8FCF743F90A2001F05AFEC5
:104C7000152333809A46133BB370664B9B465946C7
:104C80009B785A1C8A70644AF370059207AB984669
:104C900083CA83C311682000196012791A71002336
:104CA000297832000093153308F02EFD15280BD01B
:104CB0005346019000934021584A133B16A805F033
:104CC000FFFB16A8FCF714F9052001F02BFE1523B5
:104CD00033809A46133BB3705B4659469B785A1C07
:104CE0008A704246F370059B143383CB83C21968E4
:104CF000200011601B791371002329783200009382
:104D0000153308F001FD15280BD053460190009390
:104D10004021424A133B16A805F0D2FB16A8FCF727
:104D2000E7F8052001F0FEFD152333809A46133B7A
:104D3000B3705B4659469B785A1C8A704246F370A2
:104D4000059B283383CB83C21968200011601B792F
:104D500013710023297832000093153308F0D4FC36
:104D600015280BD053460190009340212B4A133B4A
:104D700016A805F0A5FB16A8FCF7BAF8322001F03A
:104D8000D1FD01F08FFF002911D0FA2200239200FB
:104D900002F03CFC03002978214A0091484680211A
:104DA00005F08EFB4846FCF7A3F80120F0E6FA2157
:104DB000890002F0EDFB0300EDE71F0022E7C0468B
:104DC0004B04000050E10010B8100020DCDB0010A4
:104DD000FB0800008C1A0020F20F002020A1070021
:104DE000FFFFFF7FFC15002004DC001000E0004006
:104DF00008C0004000F00040801A0600CCDB001024
:104E00004C040000FC08000038DC0010E81E002004
:104E10007CDC00108816002058E10010A4DC001093
:104E2000D0DC001000487047FC150020F0B5574654
:104E3000DE464E464546E0B5C34BADB09A461B68CC
:104E4000002B00D1C3E0C14B08AF0593C04B08262F
:104E50009846C04BC04D994618E0002A13D1012353
:104E600042461370059B40211B88BC4A01932B7856
:104E700018A800935B4605F023FB18A8FCF738F848
:104E80005B46032B30D0013E002E1ED08C22290021
:104E900038005200FFF716FD041E16D03B789B46E3
:104EA00043461A785B46072BD7D8594601238B40D7
:104EB000494609780B4349460B70002AE0D15B460E
:104EC000002BCCD1013E002EE0D1059A138801338E
:104ED0009BB2C72B00D9F1E013802DB0F0BCBB46CC
:104EE000B246A946A046F0BD002306960797EA5CA5
:104EF000082A04D03ED8042A43D0052A32D118000B
:104F00000C30A0422ED89649964ACE5C3602B34663
:104F10004E1EF65CB4465E4667463E4316808E1CC7
:104F2000F65C914A3602B3464E1CF65CB4465E46C9
:104F300067463E4316800E1DF65C8C4A3602B34629
:104F4000CE1CF65CB4465E4667463E4316808E1D18
:104F5000F65C0531CB5C864A36023343138083B25C
:104F60009C42C4D8534652461B68069E0133079F95
:104F7000136088E70632D2B2012AF3D805339BB218
:104F8000EEE719000A31A142ECD8681DC05C794AED
:104F9000000284466646281DC05C30431080E81D30
:104FA000C05C754A000284466646A81DC05C30435A
:104FB0000826B44610802800AC4466460930C05C20
:104FC000F35C6E4A0002034313808BB2C8E75F4B69
:104FD00008AF18880593002800D137E7322102F086
:104FE000D7FA8BB2002B00D030E71522644E3A80FE
:104FF0009146133ABA70B278511CB1706149FA7097
:10500000069109AA31C931C2086810600979117185
:105010005D4A117893465D4A0093904615333A00F5
:10502000404608F071FB152800D080E015233B8036
:105030009946133BBB70B378FB705A1C069BB27049
:10504000143309AA13CB13C21968404611601B79A7
:1050500013715B46197800233A000093153308F06A
:1050600053FB152856D115233B809946133BBB7043
:10507000B378069C5A1CFB70B270283409AB07CC7D
:1050800007C3226840461A6022791A715B46197874
:1050900000233A000093153308F036FB152800D1A1
:1050A000D4E64B46019000934021394A133B18A89F
:1050B00005F006FA18A8FBF71BFFC7E600231380CC
:1050C00053461B68002B1CD0284918AC0020095EF1
:1050D000304A039124490020095E029121490020B1
:1050E000095E019122490020095E200000915021B3
:1050F00005F0E6F9174D002320002B70FBF7F8FEB2
:10510000EBE6144D18AC502120002B78224A05F014
:10511000D7F9F0E74B460190009340211C4A133B1E
:1051200018A805F0CDF918A8FBF7E2FE9BE74B465F
:10513000019000934021164A133B18A805F0C0F9CE
:1051400018A8FBF7D5FE71E77C1600206A2E002018
:10515000772E0020762E00205C230020F0DC00104B
:10516000612300206C2E00206E2E0020702E002067
:10517000F00F0020622E0020642E0020662E0020FA
:105180008816002058E10010F20F0020B81000200F
:10519000A4DC00104CDD001028DD001010B5064C1A
:1051A0002488048005480088088005490988118002
:1051B000044A12881A8010BD6C2E00206E2E00202A
:1051C000702E0020F00F0020044B1B880380044B3E
:1051D0001B880B80034B1B8813807047622E0020B6
:1051E000642E0020662E0020F0B5C64600B584B0BF
:1051F00000246B460A223B4D9C7228210123280083
:1052000000946A4408F080FA012866D10B27012334
:105210006F443C7000260E24984605E03220013C85
:1052200001F080FB002C55D06B461E7343462821AD
:1052300000932800012303AA08F066FA0128EDD1A3
:1052400001233A0028212800009608F067FA012877
:10525000E4D13B78A02BE1D100243D236A462821EC
:10526000938128003B3B03AA009408F04DFA1920D3
:1052700001F058FB3E236A462821938128003C3BDD
:1052800003AA009408F040FA07236A462821938174
:105290002800053B03AA009408F036FA3F236A462B
:1052A0002821938128003D3B03AA009408F02CFAA2
:1052B0006A460D4B282193812800022303AA0094FB
:1052C00008F022FA142001F02DFB0122074B0120E7
:1052D0001A7003E03B78A02BBED0002004B080BC45
:1052E000B846F0BDB81000203D0C0000792E00201B
:1052F000F0B5454657464E46DE46E0B51D002F4BFD
:1053000080461C780F00160089B0002C08D10024BC
:10531000200009B0F0BCBB46B246A946A046F0BD8D
:1053200020236A461374264B28219A4601235046AF
:10533000009304AA08F0E8F981460128E7D106ABFA
:105340009B4600235A46009328215046083308F014
:10535000E5F90828DBD15B4642461B8828211380EB
:105360005B465B886A463B805B469B885046338041
:105370005B46DB882B802823D3734B460F22009398
:105380006A44012308F0C0F90128C0D10023282174
:1053900000935046063304AA08F0C0F90628B6D197
:1053A0006B46129A1B8A13806B46139A5B8A138092
:1053B0006B46149A9B8A1380AAE7C046792E002078
:1053C000B8100020F0B557464E46DE464546E0B5DB
:1053D0009DB002AB9C463B4B172799463A4B68253C
:1053E0009A46752300269B4667445A46EBB2984678
:1053F00002A902AB9A758C4616223E7001234146E3
:1054000048460096624408F07FF90400012818D04D
:105410003B785246029300902B005021019608A839
:1054200005F04EF808A8FBF763FD6B1C69256A2B95
:10543000DBD100201DB0F0BCBB46B246A946A04659
:10544000F0BD01233A0041464846009608F066F94F
:105450003B7852465021029305902B000190009416
:1054600008A805F02DF808A8FBF742FD059B012BC5
:10547000DBD13B78682B02D0703B012BD5D843465B
:105480006A460024114D41462B70114B4846138447
:10549000022308AA009408F037F9642001F042FAC8
:1054A0006C236A46FF3313846A3B2978FF3B08AAC2
:1054B0004846009408F028F90122064B01201A7092
:1054C000B8E7C046B810002074DD0010742E00202C
:1054D0006B80FFFF7A2E0020F0B5454657464E46BA
:1054E000DE46E0B51D00264B80461C780F001600F6
:1054F00089B0002C08D10024200009B0F0BCBB46C4
:10550000B246A946A046F0BD3B236A46D3731D4B65
:105510000F2219789B461C4B6A449A46002350463A
:105520000093013308F0F0F80128E4D104AB994668
:105530005B46197800234A46009350460E3308F024
:10554000EDF80E28D7D14B4642461B885BBA138034
:105550004B465B88129A5BBA3B804B469B885BBA92
:1055600033804B461B895BBA2B804B465B895BBA09
:1055700013804B469B89139A5BBA1380BCE7C046E5
:105580007A2E0020742E0020B8100020D0231B0695
:105590001B68AC4A9900F0B5DE468B4651585A421A
:1055A00053412F2257464E4645465B4293439A4607
:1055B000A54BE0B59C4683B000260191E24400294A
:1055C00038D0A24B99465246F30808339B009D58A9
:1055D0000123340098460836002D22D00F212000E8
:1055E000294001342D09002919D04B465A469A58B2
:1055F0000300C240203BDB171340424613420CD14C
:1056000007220F000240920097403A00C308904FD3
:105610003C339B00DA51019B9847002D01D0B442E6
:10562000DCD3202ECFD103B0F0BCBB46B246A94696
:10563000A046F0BD854E5F4600210F23B346CC083F
:1056400022005046083292001258002A00D1D0E0C1
:10565000180010408046100913421AD05D46ED59DB
:10566000A94620256D42AC468C446546ED17AC46F4
:105670004D46CD40A94665464E4635400126354249
:1056800004D14646724D3C34A4006651002800D136
:10569000AFE01C000440A446140A03421AD0481C80
:1056A00080465846C059464681464D460800F5405A
:1056B0001F38C01728400125284208D165462D0112
:1056C000AC46F0086646624D3C3080004651002CE6
:1056D00000D18EE0180020408446100B234211D0E8
:1056E0008C1CA0465C46E4594646A1464D460C003B
:1056F000F5401E3CE4172C4001252C4200D182E0ED
:10570000002876D01C000440A446140C034210D09C
:10571000C81C80465846C059464681464D4608003A
:10572000F5401D38C01728400125284275D0002CAF
:105730005FD0180020408046100D23420ED00C1D73
:10574000A4466546414CE459EC40A1460C004D4648
:105750001C3CE40F2C426AD000284AD01C000440B4
:10576000A446140E034218D0481D804645463748CB
:10577000C059E840814608004D461B38C00F2842FA
:1057800009D165462D05AC4640466646C008304DF9
:105790003C3080004651002C2BD01800204084461D
:1057A000120F23422AD029488C1D8146C059E0405F
:1057B0008046080045461A38C00F284206D1E00846
:1057C0006446234D3C30240680004451002A10D00A
:1057D0004846C059CC1DE04084460800654619384B
:1057E000C00F284205D1E0083C30194C1207800058
:1057F00002510831202900D021E714E7002AF8D00F
:1058000012488146E4E765462D02AC46F408664638
:105810000F4D3C34A400665172E765462D03AC463B
:10582000F00866460A4D3C30800046517FE7454609
:105830002D04A84664464646E408054D3C34A400C1
:10584000665189E7A41C002030410140C42B002090
:1058500000400140094A83009A1810B5146840229C
:10586000544080322240064CC000A44663441A6073
:10587000044B9C466044416010BDC04604C00140DA
:1058800004D0014000400140074B8000C3181B6852
:10589000C90092000A435A400C231340034A94461D
:1058A000604403607047C04604C0014004D001401A
:1058B000064B8000C3181B68054A090159409446ED
:1058C000302360440B4003607047C04604C0014071
:1058D00004D00140D0231B061B6830B50500584298
:1058E00043412F205B4283430E48EC088446072047
:1058F00028408000814020000B4D3C3063448000F4
:10590000A40041511B19002A05D08022920194461F
:105910006344196030BDC02292019446634419600B
:10592000F8E7C0463041014000400140F8B5454627
:105930009846D0231B06DE461C689B462B4B5746D9
:105940009A46A3004E469946E0B5534616004A468D
:105950009B5807000D00002B34D04346002B3FD04E
:1059600053464A4641469950D0231B061C68634261
:105970005C412F220720634293431D4A38409446DE
:10598000FA081100800085403C311A4863448900C0
:1059900092000D509B18002E0ED08022920194464A
:1059A000634401210D201D6000F034F9F0BCBB46BA
:1059B000B246A946A046F8BDC0229201944663446F
:1059C0001D60F3E74346002BD1D0534641460D20DE
:1059D00099500022084900F07FF95B461C68C6E731
:1059E0000D20054900F072FABAE7C046A41C002059
:1059F00030410140004001408D55001080000029D9
:105A000005D0064B9C464023604403607047044B1E
:105A10009C46402360440360F8E7C04604E0014030
:105A200004F001400123D022834012069362936167
:105A3000094A83009A1811684022514080320A4076
:105A40000649C0008C4663441A60054B9C460523FA
:105A5000604443607047C04604C0014004D0014028
:105A6000004001408023DB051868000F7047C046E6
:105A70000FB400B5084883B004F044FF049B002B2A
:105A800007D005A91800019104F02EFD034804F089
:105A900039FF012004F040FDA0DD0010B0DD001052
:105AA000EFF3108072B6034A1368002BFCD0BFF3EB
:105AB0005F8F70472C0100D0BFF35F8F0022024B35
:105AC0001A6080F3108870472C0100D070B5EFF396
:105AD000108C72B60D4D2B68002BFCD0BFF35F8F7E
